:020000040000fa
:080000000001040000000000f3
:020000040000fa
:0400080004020000ee
:020000040000fa
:04000c000a020000e4
:020000040000fa
:0400100034020000b6
:020000040000fa
:0400140010020000d6
:020000040000fa
:0400180016020000cc
:020000040000fa
:04001c0034020000aa
:020000040000fa
:0400200034020000a6
:020000040000fa
:0400240034020000a2
:020000040000fa
:04002800340200009e
:020000040000fa
:04002c00340200009a
:020000040000fa
:040030003402000096
:020000040000fa
:040034003402000092
:020000040000fa
:04003800340200008e
:020000040000fa
:04003c00340200008a
:020000040000fa
:040040003402000086
:020000040000fa
:040044003402000082
:020000040000fa
:04004800340200007e
:020000040000fa
:04004c00340200007a
:020000040000fa
:040050003402000076
:020000040000fa
:040054003402000072
:020000040000fa
:04005800340200006e
:020000040000fa
:04005c00340200006a
:020000040000fa
:040060003402000066
:020000040000fa
:040064003402000062
:020000040000fa
:04006800340200005e
:020000040000fa
:04006c00340200005a
:020000040000fa
:040070003402000056
:020000040000fa
:040074003402000052
:020000040000fa
:04007800340200004e
:020000040000fa
:04007c00340200004a
:020000040000fa
:040080003402000046
:020000040000fa
:040084003402000042
:020000040000fa
:04008800340200003e
:020000040000fa
:04008c00340200003a
:020000040000fa
:040090003402000036
:020000040000fa
:040094003402000032
:020000040000fa
:04009800340200002e
:020000040000fa
:04009c00340200002a
:020000040000fa
:0400a0003402000026
:020000040000fa
:0400a4003402000022
:020000040000fa
:0400a800340200001e
:020000040000fa
:0400ac00340200001a
:020000040000fa
:0400b0003402000016
:020000040000fa
:0400b4003402000012
:020000040000fa
:0400b800340200000e
:020000040000fa
:0400bc00340200000a
:020000040000fa
:0400c0003402000006
:020000040000fa
:0400c4003402000002
:020000040000fa
:0400c80034020000fe
:020000040000fa
:0400cc0034020000fa
:020000040000fa
:0400d00034020000f6
:020000040000fa
:0400d40034020000f2
:020000040000fa
:0400d80034020000ee
:020000040000fa
:0400dc0034020000ea
:020000040000fa
:0400e00034020000e6
:020000040000fa
:0400e40034020000e2
:020000040000fa
:0400e80034020000de
:020000040000fa
:0400ec0034020000da
:020000040000fa
:0400f00034020000d6
:020000040000fa
:0400f40034020000d2
:020000040000fa
:0400f80034020000ce
:020000040000fa
:0400fc0034020000ca
:020000040000fa
:0401000034020000c5
:020000040000fa
:0401040034020000c1
:020000040000fa
:0401080034020000bd
:020000040000fa
:04010c0034020000b9
:020000040000fa
:0401100034020000b5
:020000040000fa
:0401140034020000b1
:020000040000fa
:0401180034020000ad
:020000040000fa
:04011c0034020000a9
:020000040000fa
:0401200034020000a5
:020000040000fa
:0401240034020000a1
:020000040000fa
:04012800340200009d
:020000040000fa
:04012c003402000099
:020000040000fa
:040130003402000095
:020000040000fa
:040134003402000091
:020000040000fa
:04013800340200008d
:020000040000fa
:04013c003402000089
:020000040000fa
:040140003402000085
:020000040000fa
:040144003402000081
:020000040000fa
:04014800340200007d
:020000040000fa
:04014c003402000079
:020000040000fa
:040150003402000075
:020000040000fa
:040154003402000071
:020000040000fa
:04015800340200006d
:020000040000fa
:04015c003402000069
:020000040000fa
:040160003402000065
:020000040000fa
:040164003402000061
:020000040000fa
:04016800340200005d
:020000040000fa
:04016c003402000059
:020000040000fa
:040170003402000055
:020000040000fa
:040174003402000051
:020000040000fa
:04017800340200004d
:020000040000fa
:04017c003402000049
:020000040000fa
:040180003402000045
:020000040000fa
:040184003402000041
:020000040000fa
:04018800340200003d
:020000040000fa
:04018c003402000039
:020000040000fa
:040190003402000035
:020000040000fa
:040194003402000031
:020000040000fa
:04019800340200002d
:020000040000fa
:04019c003402000029
:020000040000fa
:0401a0003402000025
:020000040000fa
:0401a4003402000021
:020000040000fa
:0401a800340200001d
:020000040000fa
:0401ac003402000019
:020000040000fa
:0401b0003402000015
:020000040000fa
:0401b4003402000011
:020000040000fa
:0401b800340200000d
:020000040000fa
:0401bc003402000009
:020000040000fa
:0401c0003402000005
:020000040000fa
:0401c4003402000001
:020000040000fa
:0401c80034020000fd
:020000040000fa
:0401cc0034020000f9
:020000040000fa
:0401d00034020000f5
:020000040000fa
:0401d40034020000f1
:020000040000fa
:0401d80034020000ed
:020000040000fa
:0401dc0034020000e9
:020000040000fa
:0401e00034020000e5
:020000040000fa
:0401e40034020000e1
:020000040000fa
:0401e80034020000dd
:020000040000fa
:0401ec0034020000d9
:020000040000fa
:0401f00034020000d5
:020000040000fa
:0401f40034020000d1
:020000040000fa
:0401f80034020000cd
:020000040000fa
:0401fc0034020000c9
:020000040000fa
:100200000f8020000eff27000e0188000000000074
:10021000000020000000e000020032000001200089
:100220002002880014000700910007000000e00091
:1002300003003a0000002000010020000200370007
:100240000000200001002000810f7000010032003a
:1002500014000700000020000000e000020032004f
:1002600000000200000000008e02020000000000fa
:100270000040da000000fe004440a90020002000f9
:100280000000e00003003200100020009001880010
:100290004440a800000006008a1f78008b1f7800e9
:1002a00000000600a1028800800478000000eb0036
:1002b0001f003700e284440054a0b4009905ba003e
:1002c000e284440054a0b4009906ba00e2844400d9
:1002d00054a0b4000006eb00476fde00fd07b2003b
:1002e000ae018800636ce10003003a00eaff0700fa
:1002f0000000eb000e003700606ce10008003a00df
:10030000004deb000a05e800020039003420ec0043
:100310000af0a0008b05e900f9ff3e000400370059
:100320006168e100010032000086eb000b0007006d
:1003300019c7ba001905ba000e04e00003003a001c
:100340000a00e000dbff3a0000000600fe07b200f2
:10035000ae0288008a047800f5ff37000cd0a300b5
:10036000e20f4d001c00390089027800354dba00bb
:100370000a05e800020039003420ec000af0a00071
:100380008b05e9000f003200254dba000a05e80090
:10039000020039003420ec000af0a0008b05e900cf
:1003a000080032000c00e0000600320015cdba0053
:1003b0000a05e800020039003420ec000af0a00031
:1003c0008b05e9008984e80054a0b4000b00e0002c
:1003d000e2ff3a00000006009902ba00055d7800cd
:1003e0008b05e900f7ff3200c82ade00055d7800c2
:1003f0008b05e900f3ff32000c00e000f1ff320052
:1004000019ddba00eeff37000000fa008020a900d5
:10041000ffff37000000fa008060a900ffff3700ef
:100420000000fa008040a900ffff37000000fa003a
:100430008080a900ffff37000000fa008020a9009b
:10044000ffff37000000fa008060a900ffff3700bf
:100450000000fa008040a900ffff37000000fa000a
:100460008080a900ffff37000000fa00ffff37007f
:040470000000050083
:020000040000fa
:100474000a00fa00e8004700800878006000b8002d
:10048400008fbe001c003700800c200001002000fb
:10049400640147000089be0001003700000000002d
:1004a4006400470090007800660047001000780060
:1004b4000100700000f0a7000000ea000000ea005c
:1004c4004f00de0000417800640047001000be00c9
:1004d40061005000e0805800e40147008089be00bc
:1004e4000204e000edff3a001200200003002000a7
:1004f4001e0f41005e974900680047001000780015
:100504008000eb00be0f5000ae8f5800deff3e00af
:100514000080fa00000006000000fa00080007004e
:100524000a0007006406a90000712200d0ff07003a
:100534006406a800803e2000cdff0700f9ff3700c5
:100544000000fa000080fa00000006000000fa0033
:080554000080fa00000006001f
:020000040000fa
:02000004000af0
:04be0000ffffff0041
:020000040000fa
:02000004000af0
:04be2000ffffff0021
:020000040000fa
:02000004000af0
:04be300078ffff0098
:020000040000fa
:02000004000af0
:04be3800b7ffff0051
:020000040000fa
:02000004000af0
:04be40009fffff0061
:020000040000fa
:02000004000af0
:04be4800fcffff00fc
:020000040000fa
:02000004000af0
:04be5000dfffff0011
:020000040000fa
:02000004000af0
:04be5800ffffff00e9
:020000040000fa
:02000004000af0
:04be6000ffffff00e1
:020000040000fa
:02000004000af0
:04be6800ffffff00d9
:020000040000fa
:02000004000af0
:04be7000ffffff00d1
:020000040000fa
:02000004000af0
:04be7800ffffff00c9
:020000040000fa
:02000004000af0
:04be8000ffffff00c1
:00000001FF
